:1000000012C019C018C017C016C015C014C013C044
:1000100012C011C010C00FC00EC00DC00CC00BC06C
:100020000AC009C008C011241FBECFE5D4E0DEBF5E
:10003000CDBFAED018C1E4CF90BD89B988E98AB9E7
:1000400086E880BD08955D9BFECF8CB90895CF935F
:10005000DF93EC018991882311F0F5DFFBCFDF916D
:10006000CF910895CF93DF93CDB7DEB761970FB6E9
:10007000F894DEBF0FBECDBFAB01BE016F5F7F4FF7
:10008000B5D0CE010196E3DF61960FB6F894DEBFDE
:100090000FBECDBFDF91CF91089581B38C6181BB3D
:1000A00082B38C6082BB94980895B89AC0980895E2
:1000B000B99AC19808958FEF84BB81B3806681BBE4
:1000C000089580EC84BB81B38F7981BB0895CF9371
:1000D000DF9300D0CDB7DEB789839A83ECDF20ECC5
:1000E00025BB32B33F7932BB45B38981382F3F738B
:1000F000342B35BB32B3807C8695832B82BBC09A70
:10010000C09825BB82B38F7982BB35B39A81892F82
:100110008F73832B85BB82B39695982B92BBC19A24
:10012000C19825BB82B38F7982BB0F900F90DF916E
:10013000CF910895CF93DF931F92CDB7DEB7898318
:10014000BADF20EC25BB92B39F7992BB35B389818E
:10015000982F9F73932B95BB92B3807C8695892BA8
:1001600082BB9298929A25BB82B38F7982BB0F9003
:10017000DF91CF910895A5DF939885E08A95F1F7F7
:10018000000093B380B38076880F939A892B0895EB
:1001900087E690E051DF89DF8BDF80E090E097DF3A
:1001A0007CDFC0E0D0E0CE0192DF8C2FC3DF219650
:1001B000C13080E4D807B9F7C0E0D0E02196C1157E
:1001C00090E4D90719F481E23EDFFFCFCE017FDF53
:1001D000D2DF6AE070E090E045DF8DE234DF8FE946
:1001E0009FE00197F1F700C00000E8CF45325105CC
:1001F00018F4423008F004C0FB011082CB010895CE
:10020000BB274A3031F4992322F4BDE290958195C1
:100210009F4F01C0BB27FB015527AA27880F991FB5
:10022000AA1FA41710F0A41B83955051B9F7A05D25
:10023000AA3308F0A95DA193009779F7B111B193A2
:100240001192CB0100C0DC01FC01672F7191772373
:10025000E1F7329704C07C916D9370836291AE1781
:0A026000BF07C8F30895F894FFCF1C
:00000001FF
