:1000000012C021C020C008C11EC01DC01CC01BC022
:100010001AC019C018C049C016C015C014C013C0FA
:1000200012C011C010C011241FBECFE5D4E0DEBF46
:10003000CDBF20E0A0E6B0E001C01D92AF38B2070E
:10004000E1F7CFD215C3DCCF90BD89B988E98AB971
:1000500086E880BD08955D9BFECF8CB90895CF934F
:10006000DF93EC018991882311F0F5DFFBCFDF915D
:10007000CF910895CF93DF93CDB7DEB761970FB6D9
:10008000F894DEBF0FBECDBFAB01BE016F5F7F4FE7
:10009000B2D2CE010196E3DF61960FB6F894DEBFCF
:1000A0000FBECDBFDF91CF9108951F920F920FB673
:1000B0000F9211242F933F934F935F936F937F93EE
:1000C0008F939F93AF93BF93EF93FF938CB1813244
:1000D00059F0E091620091E09E0F90936200F0E091
:1000E000E05AFF4F80832EC0109262008091600022
:1000F000863489F018F4833431F024C08335D9F084
:10010000843589F01FC0809161009FEC980F933077
:10011000C8F499D117C08091610090ED980F9A3082
:1001200088F49FD10FC08091610090ED980F9A30B4
:1001300048F4CDD107C0809161009FEC980F9230B8
:1001400008F407D2FF91EF91BF91AF919F918F91EA
:100150007F916F915F914F913F912F910F900FBEC3
:100160000F901F90189525B5286025BD25B52460F2
:1001700025BD883E23E0920711F429EF05C0803D9C
:1001800027E0920719F42CE723BD15C0883B2BE02C
:10019000920719F422E523BD14C0803A2FE092079C
:1001A00019F42DE323BD19C0883823E1920719F40F
:1001B00021E323BD18C0803727E1920711F488E2BC
:1001C00016C088352BE1920711F482E210C080340A
:1001D0002FE1920711F48EE10AC0883223E29207E0
:1001E00011F48AE104C08031974211F488E183BDA3
:1001F00089B7806889BF089585B5886085BD85B554
:10020000846085BD89B7806889BF82E583BD089514
:1002100085B58B7F85BD08951F920F920FB60F9203
:1002200011242F933F934F935F936F937F938F93FB
:100230009F93AF93BF93EF93FF9398D0FF91EF916C
:10024000BF91AF919F918F917F916F915F914F91EE
:100250003F912F910F900FBE0F901F90189581B373
:100260008C6181BB82B38C6082BB94980895B89AEC
:10027000C0980895B99AC19808958FEF84BB81B34F
:10028000806681BB089580EC84BB81B38F7981BB8C
:100290000895CF93DF9300D0CDB7DEB789839A83DB
:1002A000ECDF20EC25BB32B33F7932BB45B389810B
:1002B000382F3F73342B35BB32B3807C8695832B2C
:1002C00082BBC09AC09825BB82B38F7982BB35B3FD
:1002D0009A81892F8F73832B85BB82B39695982B38
:1002E00092BBC19AC19825BB82B38F7982BB0F9014
:1002F0000F90DF91CF910895CF93DF931F92CDB7E9
:10030000DEB78983BADF20EC25BB92B39F7992BB1D
:1003100035B38981982F9F73932B95BB92B3807CC3
:100320008695892B82BB9298929A25BB82B38F794E
:1003300082BB0F90DF91CF910895A5DF939885E060
:100340008A95F1F7000093B380B38076880F939A73
:10035000892B089587B38C6287BB8DB181658DB978
:1003600008958FB9779BFECF8FB10895EF92FF92DA
:100370000F931F93CF93DF9300D0CDB7DEB7BE01AD
:100380006F5F7F4FCE010296FED080916500909105
:1003900066007FDF8A81B0DF809165009091660002
:1003A0000196909366008093650073DF8981A4DFD6
:1003B000809165009091660001969093660080930D
:1003C00065008091630090916400019690936400B1
:1003D00080936300209167003091680028173907E7
:1003E00048F516DF00E010E080916500909166000E
:1003F00008171907E0F4C8014CDF9FDFE82EF12C45
:10040000FE2CEE24C801019644DF97DF6AE070E01D
:100410009701282BC9012EDE8CE21DDE8FE99FE0BB
:100420000197F1F700C000000E5F1F4FDDCF81E2A2
:1004300012DEFFCF0F900F90DF91CF911F910F91A0
:10044000FF90EF900895813311F481E007C082336B
:1004500011F482E003C0833319F483E080938B00AE
:100460000895803319F488EE93E02CC0813319F499
:1004700080ED97E027C0823319F488EB9BE022C01F
:10048000833319F480EA9FE01DC0843319F488E8AF
:1004900093E118C0853319F480E797E113C08633E0
:1004A00019F488E59BE10EC0873319F480E49FE1DD
:1004B00009C0883319F488E293E204C0893331F427
:1004C00080E197E290938E0080938D0008958033B1
:1004D00011F481E023C0813311F482E01FC0823324
:1004E00011F483E01BC0833311F484E017C084331C
:1004F00011F485E013C0853311F486E00FC0863314
:1005000011F487E00BC0873311F488E007C088330B
:1005100011F489E003C0893319F48AE080938C00D8
:10052000089580918B00882359F080918D009091DF
:100530008E00892B29F081E090918C00911101C0EF
:1005400080E0089521E081389E4308F020E0822F6A
:100550000895E7DF882399F040918C0080918D0009
:1005600090918E00489F9001499F300D1124309347
:1005700068002093670021383E4308F4F4CD0895C5
:10058000BA9AC29A08950F931F93CF93DF93EC0109
:100590008B01C2988CE0E5DE80E0E3DE8F7088831B
:1005A00080E0DFDEF8018083C29ADF91CF911F9156
:1005B0000F9108950F931F93CF93DF93EC018B015D
:1005C000C2988CE0CEDE80E8CCDE8F70888380E03D
:1005D000C8DEF8018083C29ADF91CF911F910F91FD
:1005E0000895789487E690E02FDDB4DEC9DF3FDE22
:1005F00041DE35DEFFCF4532510518F4423008F0B8
:1006000004C0FB011082CB010895BB274A3031F4AE
:10061000992322F4BDE2909581959F4F01C0BB279D
:10062000FB015527AA27880F991FAA1FA41710F0AE
:10063000A41B83955051B9F7A05DAA3308F0A95DBA
:10064000A193009779F7B111B1931192CB0100C03A
:10065000DC01FC01672F71917723E1F7329704C029
:100660007C916D9370836291AE17BF07C8F30895B4
:04067000F894FFCF2C
:00000001FF
