:1000000012C021C020C068C11EC01DC01CC01BC0C2
:100010001AC019C018C049C016C015C014C013C0FA
:1000200012C011C010C011241FBECFE5D4E0DEBF46
:10003000CDBF20E0A0E6B0E001C01D92A339B20719
:10004000E1F783D3CAC3DCCF90BD89B988E98AB907
:1000500086E880BD08955D9BFECF8CB90895CF934F
:10006000DF93EC018991882311F0F5DFFBCFDF915D
:10007000CF910895CF93DF93CDB7DEB761970FB6D9
:10008000F894DEBF0FBECDBFAB01BE016F5F7F4FE7
:1000900067D3CE010196E3DF61960FB6F894DEBF19
:1000A0000FBECDBFDF91CF9108951F920F920FB673
:1000B0000F9211242F933F934F935F936F937F93EE
:1000C0008F939F93AF93BF93EF93FF938CB1813244
:1000D00059F0E091620091E09E0F90936200F0E091
:1000E000E05AFF4F80832EC0109262008091600022
:1000F000863489F018F4833431F024C08335D9F084
:10010000843589F01FC0809161009FEC980F933077
:10011000C8F424D217C08091610090ED980F9A30F6
:1001200088F42AD20FC08091610090ED980F9A3028
:1001300048F458D207C0809161009FEC980F92302C
:1001400008F49ED2FF91EF91BF91AF919F918F9153
:100150007F916F915F914F913F912F910F900FBEC3
:100160000F901F90189525B5286025BD61116EC0B0
:1001700051E080342FE1920709F050E041E08031F6
:1001800037E2930709F040E0242F252B31F49C013E
:10019000285E3340213A3F4030F425B52C7F25BD01
:1001A00025B5246025BD21E0803737E1930709F0AC
:1001B00020E061E088353BE1930719F060E02223FD
:1001C00031F035B53B7F35BD35B5336035BD88324F
:1001D00033E2930739F435B53A7F35BD35B5326032
:1001E00035BD1BC0883E33E0930719F439EF33BDAA
:1001F00014C0803D37E0930711F43CE705C0883B0D
:100200003BE0930719F432E533BD0DC0803A3FE07F
:10021000930719F42DE323BD0BC0883833E193070E
:1002200011F421E303C0222319F022E523BD05C008
:10023000662319F020E223BD04C0552311F08EE19E
:1002400039C088329342E1F58DED3DC06130E1F572
:1002500051E0803A2FE0920709F050E041E0883801
:1002600033E1930709F040E0242F252B31F49C0162
:10027000285E3340293E334030F425B52C7F25BD20
:1002800025B5246025BD883B2BE0920741F485B558
:100290008B7F85BD85B5836085BD82E514C0883EB2
:1002A00033E0930719F48CE783BD06C0803D974087
:1002B00019F48DE383BD04C0552311F08EE103C012
:1002C000442311F088E183BD89B7806889BF089510
:1002D00085B5887F85BD08951F920F920FB60F9246
:1002E00011242F933F934F935F936F937F938F933B
:1002F0009F93AF93BF93EF93FF9398D0FF91EF91AC
:10030000BF91AF919F918F917F916F915F914F912D
:100310003F912F910F900FBE0F901F90189581B3B2
:100320008C6181BB82B38C6082BB94980895B89A2B
:10033000C0980895B99AC19808958FEF84BB81B38E
:10034000806681BB089580EC84BB81B38F7981BBCB
:100350000895CF93DF9300D0CDB7DEB789839A831A
:10036000ECDF20EC25BB32B33F7932BB45B389814A
:10037000382F3F73342B35BB32B3807C8695832B6B
:1003800082BBC09AC09825BB82B38F7982BB35B33C
:100390009A81892F8F73832B85BB82B39695982B77
:1003A00092BBC19AC19825BB82B38F7982BB0F9053
:1003B0000F90DF91CF910895CF93DF931F92CDB728
:1003C000DEB78983BADF20EC25BB92B39F7992BB5D
:1003D00035B38981982F9F73932B95BB92B3807C03
:1003E0008695892B82BB9298929A25BB82B38F798E
:1003F00082BB0F90DF91CF910895A5DF939885E0A0
:100400008A95F1F7000093B380B38076880F939AB2
:10041000892B089587B38C6287BB8DB181658DB9B7
:1004200008958FB9779BFECF8FB10895EF92FF9219
:100430000F931F93CF93DF9300D0CDB7DEB780919A
:100440006B00813031F4BE016F5F7F4FCE010296A9
:100450004ED180916B00823031F4BE016F5F7F4FCF
:10046000CE0102965BD180916B008330C1F4809104
:10047000670081110AC0BE016F5F7F4FCE010296F7
:1004800036D181E0809367000AC0813041F4BE011B
:100490006F5F7F4FCE01029641D11092670080912D
:1004A00065009091660055DF8A8186DF8091650046
:1004B000909166000196909366008093650049DFF5
:1004C00089817ADF80916500909166000196909312
:1004D00066008093650080916300909164000196AE
:1004E00090936400809363002091690030916A00CA
:1004F0002817390750F5ECDE00E010E08091650028
:100500009091660008171907B0F4C80122DF75DF63
:10051000E82EF12CFE2CEE24C80101961ADF6DDFC7
:100520006AE070E09701282BC901A4DD8CE293DD1D
:100530000E5F1F4FE3CF81E28EDD109266001092B6
:10054000650010926400109263000F900F90DF918D
:10055000CF911F910F91FF90EF900895813311F487
:1005600081E007C0823311F482E003C0833319F4C1
:1005700083E080938F000895803319F488EE93E030
:100580002CC0813319F480ED97E027C0823319F431
:1005900088EB9BE022C0833319F480EA9FE01DC002
:1005A000843319F488E893E118C0853319F480E79F
:1005B00097E113C0863319F488E59BE10EC08733B9
:1005C00019F480E49FE109C0883319F488E293E2CA
:1005D00004C0893331F480E197E2909392008093D4
:1005E00091000895803311F481E023C0813311F428
:1005F00082E01FC0823311F483E01BC0833311F407
:1006000084E017C0843311F485E013C0853311F4FE
:1006100086E00FC0863311F487E00BC0873311F4F6
:1006200088E007C0883311F489E003C0893319F4E6
:100630008AE080939000089521E020938F0088EE57
:1006400093E09093920080939100209390000895FE
:1006500080918F00882359F08091910090919200B1
:10066000892B29F081E090919000911101C080E0E8
:10067000089521E081389E4308F020E0822F0895FC
:10068000E7DF882381F110926A001092690090914F
:100690008F0090936B0080919000933029F491E04B
:1006A00090936800880F02C01092680080938E00BB
:1006B0004091690050916A0060918E008091910094
:1006C00090919200689F9001699F300D1124240F32
:1006D000351F30936A002093690021383E4318F497
:1006E0006091680040CD0895BA9AC29A08950F9318
:1006F0001F93CF93DF93EC018B01C2988CE091DEC6
:1007000080E08FDE8F70888380E08BDEF80180834D
:10071000C29ADF91CF911F910F9108950F931F936C
:10072000CF93DF93EC018B01C2988CE07ADE80E8F6
:1007300078DE8F70888380E074DEF8018083C29A4F
:10074000DF91CF911F910F910895789489E190E006
:100750007BDC60DEC9DFEBDDEDDDE1DD6DDFFFCFF2
:100760004532510518F4423008F004C0FB011082F4
:10077000CB010895BB274A3031F4992322F4BDE21E
:10078000909581959F4F01C0BB27FB015527AA2754
:10079000880F991FAA1FA41710F0A41B839550510E
:1007A000B9F7A05DAA3308F0A95DA193009779F786
:1007B000B111B1931192CB0100C0DC01FC01672F94
:1007C00071917723E1F7329704C07C916D93708328
:0E07D0006291AE17BF07C8F30895F894FFCFEB
:00000001FF
