:1000000012C021C020C061C01EC01DC01CC01BC0CA
:100010001AC019C018C017C016C015C014C013C02C
:1000200012C011C010C011241FBECFE5D4E0DEBF46
:10003000CDBF20E0A0E6B0E001C01D92AA38B20713
:10004000E1F787D1D7C1DCCF90BD89B988E98AB9FA
:1000500086E880BD08955D9BFECF8CB90895CF934F
:10006000DF93EC018991882311F0F5DFFBCFDF915D
:10007000CF910895CF93DF93CDB7DEB761970FB6D9
:10008000F894DEBF0FBECDBFAB01BE016F5F7F4FE7
:1000900074D1CE010196E3DF61960FB6F894DEBF0E
:1000A0000FBECDBFDF91CF91089585B5886085BD26
:1000B00085B5846085BD89B7806889BF82E583BDC9
:1000C000089585B58B7F85BD08951F920F920FB659
:1000D0000F9211242F933F934F935F936F937F93CE
:1000E0008F939F93AF93BF93EF93FF9398D0FF911C
:1000F000EF91BF91AF919F918F917F916F915F91A0
:100100004F913F912F910F900FBE0F901F90189518
:1001100081B38C6181BB82B38C6082BB949808955B
:10012000B89AC0980895B99AC19808958FEF84BB82
:1001300081B3806681BB089580EC84BB81B38F79E5
:1001400081BB0895CF93DF9300D0CDB7DEB789830D
:100150009A83ECDF20EC25BB32B33F7932BB45B349
:100160008981382F3F73342B35BB32B3807C869521
:10017000832B82BBC09AC09825BB82B38F7982BB88
:1001800035B39A81892F8F73832B85BB82B3969564
:10019000982B92BBC19AC19825BB82B38F7982BB41
:1001A0000F900F90DF91CF910895CF93DF931F921F
:1001B000CDB7DEB78983BADF20EC25BB92B39F7938
:1001C00092BB35B38981982F9F73932B95BB92B3C4
:1001D000807C8695892B82BB9298929A25BB82B3AC
:1001E0008F7982BB0F90DF91CF910895A5DF93980F
:1001F00085E08A95F1F7000093B380B38076880F8D
:10020000939A892B089587B38C6287BB8DB18165E2
:100210008DB908958FB9779BFECF8FB10895EF9276
:10022000FF920F931F93CF93DF9300D0CDB7DEB72C
:10023000BE016F5F7F4FCE0102965DD0809162005C
:10024000909163007FDF8A81B0DF8091620090919E
:1002500063000196909363008093620073DF89814D
:10026000A4DF8091620090916300019690936300F7
:10027000809362008091600090916100019690935C
:10028000610080936000893B9B4048F11ADF80E465
:10029000E2DE00E010E080916200909163000817B8
:1002A0001907E0F4C8014EDFA1DFE82EF12CFE2C87
:1002B000EE24C801019646DF99DF6AE070E09701FD
:1002C000282BC901D7DE8DE2C6DE8FE39FE10197BF
:1002D000F1F700C000000E5F1F4FDDCFFFCF0F9082
:1002E0000F90DF91CF911F910F91FF90EF900895A4
:1002F000BA9AC29A08950F931F93CF93DF93EC019C
:100300008B01C2988CE086DF80E084DF8F70888369
:1003100080E080DFF8018083C29ADF91CF911F9146
:100320000F9108950F931F93CF93DF93EC018B01EF
:10033000C2988CE06FDF80E86DDF8F70888380E08B
:1003400069DFF8018083C29ADF91CF911F910F91ED
:100350000895789487E690E077DE55DFC9DFE0DE28
:10036000E2DED6DE2FEF83E294EF21508040904012
:10037000E1F700C0000099DEFFCF4532510518F4C7
:10038000423008F004C0FB011082CB010895BB2766
:100390004A3031F4992322F4BDE2909581959F4F24
:1003A00001C0BB27FB015527AA27880F991FAA1F49
:1003B000A41710F0A41B83955051B9F7A05DAA3380
:1003C00008F0A95DA193009779F7B111B19311924B
:1003D000CB0100C0DC01FC01672F71917723E1F7AD
:1003E000329704C07C916D9370836291AE17BF0702
:0803F000C8F30895F894FFCF53
:00000001FF
